:020000040800F2
:10000000D0570020A12B0008A92B0008AB2B00081B
:10001000AD2B0008AF2B0008B12B0008000000003A
:100020000000000000000000000000006501000862
:10003000B52B000800000000A90100087F1D000882
:10004000BB2B0008BB2B0008BB2B0008BB2B0008F8
:10005000BB2B0008BB2B0008BB2B0008BB2B0008E8
:10006000BB2B0008BB2B0008BB2B0008BB2B0008D8
:10007000BB2B0008BB2B0008BB2B0008BB2B0008C8
:10008000BB2B0008BB2B0008BB2B0008BB2B0008B8
:10009000BB2B0008BB2B0008BB2B0008BB2B0008A8
:1000A000BB2B0008BB2B0008BB2B0008BB2B000898
:1000B000BB2B0008BB2B0008BB2B0008BB2B000888
:1000C000BB2B0008BB2B0008BB2B0008BB2B000878
:1000D000BB2B0008FB4B0008BB2B0008BB2B000808
:1000E000BB2B0008BB2B0008BB2B00080000000046
:1000F0000000000000000000000000000000000000
:100100000000000000000000BB2B0008BB2B000813
:10011000BB2B0008BB2B0008BB2B0008BB2B000827
:10012000BB2B0008BB2B0008BB2B0008BB2B000817
:10013000BB2B0008BB2B0008BB2B0008BB2B000807
:10014000BB2B0008BB2B0008BB2B0008BB2B0008F7
:10015000DFF80CD005F0D0F800480047C54A000889
:10016000D0570020204B19680868B0E8F00F80F3E2
:100170000988BFF36F8F4FF0000080F311884EF0B5
:100180000D0E70470000000006480068006880F30C
:10019000088862B661B6BFF34F8FBFF36F8F00DF81
:1001A00000BF00BF08ED00E0EFF30980BFF36F8FE1
:1001B0000D4B1A6820E9F00F106008B54FF00100F0
:1001C00080F3118800F065FF4FF0000080F3118884
:1001D000BDE8084019680868B0E8F00F80F30988A6
:1001E000BFF36F8F704700BF00000020EFF3118056
:1001F0004FF0010181F31188704780F31188704737
:10020000EFF305807047000000F108014FF0FF3266
:10021000C0E90112C1600161002101607047002145
:100220000161704742684A6093688B6093685960C7
:10023000916008610168491C0160704710B40B6847
:10024000B3F1FF3F0CBF026900F1080208D000BF04
:10025000D2F804C0DCF800409C4298BF6246F7D94F
:1002600053684B6099608A60516008610168491C5D
:10027000016010BC7047D0E9013201699A60D0E991
:1002800001235A604A68824204BF82684A600022A1
:1002900002610868401E0860704770B50D4604464C
:1002A00001F058FDD4E90F12206801FB02006060E4
:1002B0000020A0632068491EA06001FB0200E060EE
:1002C0004FF0FF306064A0645DB104F11000FFF7EF
:1002D0009BFF04F12400FFF797FF01F047FD012089
:1002E00070BD20690028F8D004F1100001F0A3F8D7
:1002F000012808BF01F025FDEFE770B50D000646A7
:100300004FF000040EBF002006FB05F0401C4C30EF
:1003100001F04EFD30B30446002D0EBF246004F101
:100320004C002060C4E90F6501F014FDD4E90F1200
:10033000206801FB020060600020A0632068491E65
:10034000A06001FB0200E0604FF0FF306064A06439
:1003500004F11000FFF758FF04F12400FFF754FFE9
:1003600001F004FD204670BD2DE9F041064600274E
:100370000D463C464C2001F01BFD002804BF2046E2
:10038000BDE8F08104460060C4E90F6701F0E2FCBB
:10039000D4E90F12206801FB020060600020A06316
:1003A0002068491EA06001FB0200E0604FF0FF30B2
:1003B0006064A06404F11000FFF726FF04F124003C
:1003C000FFF722FF01F0D2FC2046A563BDE8F081D3
:1003D0002DE9FF43002783B01E4688460446B946F0
:1003E0007D1E01F0B7FCA06BE16B884207D3022EA3
:1003F00005D0059800283BD0002F3CD03FE0226C70
:10040000414612B37EB1E06804F074FCE168206CF0
:10041000091AE1602268914202D26168081AE0601C
:10042000022E12D10CE0A06804F064FC216CA068DC
:100430000844A0606168884224BF2068A06004E08E
:10044000A06B10B1A06B401EA063A06B401CA0630A
:10045000606A38B104F1240000F0EDFF012808BF04
:1004600001F06FFC01F082FC07B00120BDE8F083D1
:1004700001F07CFC4EE0684601F02CF8012701F009
:1004800075FC00F034FD01F065FC606CB0F1FF3FDD
:1004900008BFC4F84490A06CB0F1FF3F08BFC4F897
:1004A000489001F063FC05A9684601F019F8A8B36B
:1004B00001F050FCA06C00280FDD606A68B104F107
:1004C000240000F0B8FF002818BF01F02FF8A06C3E
:1004D000401EA064A06C0028EFDCA56401F046FC7F
:1004E00001F038FC606C00280FDD206968B104F170
:1004F000100000F0A0FF002818BF01F017F8606C92
:10050000401E6064606C0028EFDC656401F02EFC26
:1005100000F039FC07B00020BDE8F083FFE701F0F0
:1005200019FCA06BE16B88420CD101F01FFC04F1B7
:100530001000059900F002FF01F00CFCA06C0028EF
:1005400018DD07E001F012FC01F004FCA06C0028AB
:1005500042DD31E0606A68B104F1240000F06BFF15
:10056000002818BF00F0E2FFA06C411EA164A06C3F
:100570000028EFDCA56401F0F9FB01F0EBFB606CF7
:1005800000280FDD206968B104F1100000F053FF6E
:10059000002818BF00F0CAFF606C411E6164606CE7
:1005A0000028EFDC656401F0E1FB00F0ECFB0028C3
:1005B00008BF01F0C6FB14E7606A68B104F12400CB
:1005C00000F039FF002818BF00F0B0FFA06C411EFA
:1005D000A164A06C0028EFDCA56401F0C7FB01F06A
:1005E000B9FB606C00280FDD206968B104F11000D0
:1005F00000F021FF002818BF00F098FF606C411E3A
:100600006164606C0028EFDC656401F0AFFB00F012
:10061000BAFBE6E62DE9F0411D4616460F460446B4
:10062000FFF7E4FD8046A06BE16B884209D3022D01
:1006300018BF002405D04046FFF7DFFD2046BDE887
:10064000F081226C39461AB385B1E06804F052FBA0
:10065000216CE068401AE0602168884203D2216C76
:100660006068401AE060022D12D10CE0A06804F02E
:1006700041FB216CA0680844A0606168884224BFE7
:100680002068A06004E0A06B10B1A06B401EA063C6
:10069000A06B401CA063A06CB0F1FF3F04D0A06C25
:1006A000401CA0640124C6E7606A0028FAD004F167
:1006B000240000F0C0FE00281EBF002E0120306084
:1006C000F0E770B50D460446FFF790FD0646A06BB7
:1006D000E16B884228BF00240AD2A06B401CA063B3
:1006E000A06CB0F1FF3F08D0A06C401CA0640124B6
:1006F0003046FFF782FD204670BD606A0028F6D0C4
:1007000004F1240000F097FE00281EBF002D0120F8
:100710002860ECE72DE9FF43002783B099460E4699
:100720000446B8467D1E01F015FBA06B00282DD0B5
:10073000E568226C52B1A818E0606168884224BF65
:100740002068E0600146304604F0D4FAB9F1000FA9
:100750000FD0E560606A30B104F1240000F06BFE58
:1007600008B101F0EEFA01F001FB07B00120BDE88D
:10077000F083A06B401EA06320690028F3D004F131
:10078000100000F058FE0128EBD0ECE7059808B106
:100790001FB106E001F0EAFA4EE0684600F09AFE6A
:1007A000012701F0E3FA00F0A2FB01F0D3FA606C3C
:1007B000B0F1FF3F08BFC4F84480A06CB0F1FF3F28
:1007C00008BFC4F8488001F0D1FA05A9684600F0D6
:1007D00087FEA8B301F0BEFAA06C00280FDD606AA6
:1007E00068B104F1240000F026FE002818BF00F0D4
:1007F0009DFEA06C401EA064A06C0028EFDCA564E8
:1008000001F0B4FA01F0A6FA606C00280FDD20694F
:1008100068B104F1100000F00EFE002818BF00F0CF
:1008200085FE606C401E6064606C0028EFDC6564CF
:1008300001F09CFA00F0A7FA07B00020BDE8F083B1
:10084000FFE701F087FAA06B38B101F08FFA01F0F1
:1008500081FAA06C00284EDD3DE001F087FA04F13A
:100860002400059900F06AFD01F074FAA06C0028DC
:100870000FDD606A68B104F1240000F0DCFD00289F
:1008800018BF00F053FEA06C411EA164A06C0028AC
:10089000EFDCA56401F06AFA01F05CFA606C0028F4
:1008A0000FDD206968B104F1100000F0C4FD0028DC
:1008B00018BF00F03BFE606C411E6164606C002854
:1008C000EFDC656401F052FA00F05DFA002808BF21
:1008D00001F037FA27E7606A68B104F1240000F0FC
:1008E000AAFD002818BF00F021FEA06C411EA164E3
:1008F000A06C0028EFDCA56401F038FA01F02AFAB8
:10090000606C00280FDD206968B104F1100000F070
:1009100092FD002818BF00F009FE606C411E616462
:10092000606C0028EFDC656401F020FA00F02BFA1F
:10093000F9E62DE9F04116460D460446FFF756FC50
:100940000746A06B002808BF002418D0216C284659
:1009500051B1E2681144E1606268914224BF2168AC
:10096000E160226C04F0C6F9A06B401EA063606CCD
:10097000B0F1FF3F09D0606C401C60640124384630
:10098000FFF73BFC2046BDE8F08120690028F5D048
:1009900004F1100000F04FFD00281EBF002E0120C2
:1009A0003060EBE72DE9F0410D460446FFF71EFCF1
:1009B0000746A06B002808BF00240FD0E668216C12
:1009C000284649B13144E1606268914224BF216800
:1009D000E160226C04F08EF9E66001243846FFF7EE
:1009E0000CFC2046BDE8F08110B5044601F0B2F9D8
:1009F000A46B01F0BBF9204610BD10B5044601F010
:100A0000A9F9A16BE06B441A01F0B0F9204610BDC2
:100A1000806B704701F02BBA806B00280CBF01205F
:100A200000207047816BC06B81420CBF0120002009
:100A3000704770B50D46044601F08CF9606CB0F15A
:100A4000FF3F4FF0000008BF6064A16CB1F1FF3FB1
:100A500008BFA06401F08AF9A06B20B9294604F10F
:100A6000240000F0CCFC2046BDE87040AFF30080CD
:100A700070B5044601F06EF9A06C00280FDD606AC5
:100A800068B104F1240000F0D6FC002818BF00F083
:100A90004DFDA06C401EA064A06C0028EFDC4FF060
:100AA000FF35A56401F062F901F054F9606C00288B
:100AB0000FDD206968B104F1100000F0BCFC0028D3
:100AC00018BF00F033FD606C401E6064606C00284D
:100AD000EFDC6564BDE8704001F048B92DE9F05FD6
:100AE0009A46DDE90B850A9E91460F46834625B955
:100AF0004FEA890001F05CF90546002D49D04C20F1
:100B000001F056F9040041D06FF0030000EB8900BA
:100B1000284420F0070925633546002021183A5C57
:100B200081F83420395C00291CBF401C1028F5D303
:100B3000002784F84370052D28BF0425201DE56299
:100B4000FFF76DFB04F11800FFF769FB2461C5F1A5
:100B500005016462A161676484F848705246594691
:100B6000484601F0C2F82060B8F1000F18BFC8F87D
:100B7000004001F0EFF8F94FB868401CB8603868E1
:100B8000DFF8DC8340B1786948B32DE0284601F0F6
:100B90006EF94FF0FF3442E03C60B868012808BFAE
:100BA000002521D105EB850008EB8000FFF72CFB29
:100BB0006D1C052DF6D3EB48FFF726FBEA48FFF73F
:100BC00023FBEA48FFF720FBE948FFF71DFBE94854
:100BD000FFF71AFBE34838631430786304E03868A1
:100BE000C06AB04298BF3C60786A0121401C7862BC
:100BF000E06A3A6981401143396100EB800008EBFB
:100C00008000211DFFF70EFB012401F0AFF8786989
:100C100028B13868C06AB04238BF01F092F8204667
:100C2000BDE8F09F70B5054601F094F8CB4C002D5F
:100C300008BF2568281DFFF71EFB68B9E86AC84A87
:100C400000EB800152F8211031B9012101FA00F0C6
:100C5000216921EA00002061A86A00281CBF05F173
:100C60001800FFF708FB291DC148FFF7DBFA606891
:100C7000401C6060606A401C606201F077F8606947
:100C8000002808BF70BD2068854203D1BDE87040D0
:100C900001F057B801F05EF8206B006800280FBF24
:100CA0004FF0FF30206BC068C06818BF4068A0627A
:100CB000BDE8704001F05AB82DE9F047A74D002675
:100CC000E86A48B1A869401CA861E869002818BF13
:100CD00001263046BDE8F087E868401CE860EF6810
:100CE0004FF0FF3997B9286B696B29636863286AED
:100CF000401C2862286B0068002808BFC5F82890AF
:100D000004D0286BC068C0684068A862A86ADFF891
:100D10005082874228BF4FF0010A0CD3286B00682D
:100D200038B1286BC068C468606887420DD2A86279
:100D300001E0C5F828902868C06A00EB800058F8E8
:100D40002000012888BF0126BFE7201DFFF793FA86
:100D5000A06A00281CBF04F11800FFF78CFAE06AB3
:100D60002A690AFA00F11143296100EB800008EBBF
:100D70008000211DFFF756FAE06A2968C96A884297
:100D800028BF0126CAE72DE9F05F4FF0000A00F006
:100D9000E1FF724DE86A401EE862E86A00284ED121
:100DA000A86800284BD0714E4FF00109A6F18C07BE
:100DB0003068F8B1F068C46804F11800FFF75BFA16
:100DC000201DFFF758FAE06A2A6909FA00F1114379
:100DD000296100EB800007EB8000211DFFF722FA5C
:100DE000E16A2868C06A814228BFC5F81C90306853
:100DF0000028DFD1A86900281EBFA86900284FF08D
:100E0000FF3B15D0E86A4FF00008E8B1A869401C24
:100E1000A861E869002808BFB8F1000F02D000BF40
:100E2000C5F81C90A869401EA861A8690028E9D1EE
:100E3000E869012804BF4FF0010A00F082FF00F0CA
:100E400095FF5046BDE8F09FE868401CE860EE68FA
:100E500096B9286B696B29636863286A401C28620D
:100E6000286B0068002808BFC5F828B004D0286B9C
:100E7000C068C0684068A862A86A86420CD3286B24
:100E8000006838B1286BC068C468606886420FD2B9
:100E9000A86201E0C5F828B029682846C96A01EBB4
:100EA000810157F82110012988BFC069B8D8B0E77F
:100EB000201DFFF7E0F9A06A00281CBF04F118000C
:100EC000FFF7D9F9E06A2A6909FA00F111432961AB
:100ED00000EB800007EB8000211DFFF7A3F9E06A1B
:100EE0002968C96A884228BF4FF00108C7E71B4834
:100EF000C16A491CC162704770B5184DEA6A521C3C
:100F0000EA62EB68026854189A4204D9A24288BF88
:100F10009C420BD903E0A24298BF9C4206D90460D0
:100F20002868001DFFF7A7F960B901E004600CE034
:100F30002868012190F82C0001FA00F0296921EAC3
:100F400000002861204600F07FFCFFF71CFF00280E
:100F500018BF70BDBDE8704000F0F3BE0000002077
:100F6000E000002044010020580100206C01002016
:100F7000800100209401002070B5E0B1FE4CE16AD0
:100F8000491CE162E1680D182068001DFFF773F944
:100F900048B92068012190F82C0001FA00F021697D
:100FA00021EA00002061284600F04EFCFFF7EBFE2E
:100FB000002818BF70BDBDE8704000F0C2BE10B57B
:100FC000044600F0C7FE002C04BFEB480468E46A46
:100FD00000F0CCFE204610BD10B50446FFF706F920
:100FE000002C04BFE4490C68E46AFFF706F92046C8
:100FF00010BD2DE9F0410E4604464FF000080529CA
:1010000028BF042600F0A6FEDB4D002C08BF2C688C
:10101000E76AB74239D02868BE4206D9844208D070
:101020002868C06AB04202D903E0844201D14FF07F
:101030000108E662A06910F0004F04BFC6F1050088
:10104000A06107EB8701CD4E606906EB8101884204
:1010500016D1201DFFF70FF9012128B92A6901FADD
:1010600007F022EA00002861E06A2A698140114302
:10107000296100EB800006EB8000211DFFF7D2F80C
:10108000B8F1000F18BF00F05CFEBDE8F04100F0C1
:101090006DBEB948C16A00291EBF0121C1617047F8
:1010A0000021C1610169B54AB1FA81F1C1F11F01A5
:1010B00001EB810102EB810101F108034A685268EA
:1010C0004A609A4204BF52684A60D1680160704722
:1010D0002DE9F041054600F03DFEA74C002D08BF6C
:1010E0002568281DFFF7C7F8A44E012758B9E86AFC
:1010F00000EB800156F8211029B9216907FA00F0A8
:1011000021EA00002061A86A00281CBF05F1180030
:10111000FFF7B1F8291D9A48FFF784F800F026FE82
:101120002068854260692AD118B1BDE8F04100F01D
:1011300008BE9348A26801680020914204BF206065
:10114000BDE8F081E16A00291CBFE761BDE8F081DC
:10115000E0612069B0FA80F0C0F11F0000EB800070
:1011600006EB800000F10802416849684160914245
:1011700004BF49684160C8682060BDE8F08100286C
:1011800008BFBDE8F08100F0E5FD206B0068002895
:101190000FBF4FF0FF30206BC068C06818BF4068B9
:1011A000A062BDE8F04100F0E1BD70B5040008BFE9
:1011B00070BD714D2868844208BF70BD00F0CAFD43
:1011C0006F49606988421CD1A06A2839884218D0CA
:1011D000B8B9201DFFF74FF8E06A01212A69814064
:1011E00011432961654900EB800001EB8000211D5E
:1011F000FFF718F8E06A2968C96A884228BF00F03A
:10120000A0FDBDE8704000F0B1BD2DE9F041002522
:101210000446FEF7EBFF5A4A61690646914224D123
:10122000A06AA2F1280188421FD0F0B9524FF86A93
:1012300000281CBF04F11801524814D1E06A396833
:10124000C96A884228BF0125201DFFF714F8E06A0B
:1012500001213A69814011433961484900EB80001E
:1012600001EB8000211DFEF7DDFF3046FEF7C5FFD4
:101270002846BDE8F081444E3F4CA6F1A0076068C7
:10128000F0B1E06A401CE0623068F8B1FFF77BFD26
:1012900000F060FDF068C568281DFEF7ECFFA0684F
:1012A000401EA0606068401E606000F05FFD286B1B
:1012B00000F0DDFD284600F0DAFD60680028E0D18E
:1012C0003868012888BF00F03CFDD8E7FFF75BFDD8
:1012D000F3E710B584B000240094019402942346EF
:1012E00080222AA12B480394FFF7F8FB01281CBF9A
:1012F00004B010BD00F012FC01281CBF04B010BDEA
:10130000FEF774FF1C4801214161C46004B0BDE8D0
:10131000104000F0FEBC10B5FEF768FF1649002033
:101320004861BDE8104000F00BBD1348C06870472D
:101330001148C068704710488068704770B50E4CFF
:101340000D4621681831FEF779FF2068001DFEF771
:1013500092FF48B92068012190F82C0001FA00F0B2
:10136000216921EA00002061B5F1FF3F16D0E06855
:101370002844BDE870400FE000000020E00000209D
:10138000940100206C0100208001002049444C455C
:10139000000000007712000800F056BA2068BDE88F
:1013A0007040011DFD48FEF73DBF70B5FC4C154671
:1013B00041F000412268916121681831FEF732FF47
:1013C0002068001DFEF757FF48B92068012190F8FA
:1013D0002C0001FA00F0216921EA00002061B5F13A
:1013E000FF3F05D0E0682844BDE8704000F02CBA0B
:1013F0002068BDE87040011DE848FEF713BF70B5D6
:10140000E74C0D4621681831FEF70CFF2068001DDF
:10141000FEF731FF48B92068012190F82C0001FA4D
:1014200000F0216921EA00002061E0682844BDE85D
:10143000704000F009BA70B5C068C56805F11800C1
:10144000FEF719FFD64CE06A012600281CBF05F103
:101450001801D4480BD000BFFEF7E4FEE86A21680B
:10146000C96A884286BF0120E661002070BD281D40
:10147000FEF701FFE86A226906FA00F111432161D3
:10148000C94900EB800001EB8000291DE4E770B53D
:1014900041F000410160C568FEF7EDFE281DFEF732
:1014A000EAFEBF4CE86A0126226906FA00F1114300
:1014B0002161BD4900EB800001EB8000291DFEF792
:1014C000B1FEE86A2168C96A884286BF0120E661E8
:1014D000002070BDB2490A6A0260C9684160704765
:1014E00070B50D46044600F035FCAD48C1682A6869
:1014F000B2F1FF3F08BF002414D02368D0F820C009
:10150000634502D063688B420BD96368C91A8A426B
:1015100007D9511A2960016A2160C06860600024FF
:1015200000E0012400F022FC204670BD9C4901200F
:10153000C86170479A484169002904BF012070477B
:10154000C06A00280CBF0220002070479449086838
:101550000A688069D26A0968C2F105028A61704727
:101560002DE9F0410D46064600F0F4FB8C4C206856
:10157000406CD8B92068012780F84870B5B1206860
:10158000001DFEF778FE40B92068216990F82C0014
:1015900007FA00F021EA00002061B5F1FF3F13D007
:1015A000E068284400F050F900F0CBFB00F0DEFBCF
:1015B00000F0D0FB2068456C002075B12168002E3A
:1015C00018BF486406D008E02068011D7348FEF784
:1015D00029FEE9E74A6C521E4A64216881F84800F6
:1015E00000F0C4FB2846BDE8F0812DE9F0411D461E
:1015F00017460E46804600F0ADFB694C206890F817
:101600004800022822D02368586C20EA0800586459
:1016100020684FF0010880F84880BDB12068001DA7
:10162000FEF729FE40B92068216990F82C0008FADD
:1016300000F021EA00002061B5F1FF3F23D0E0680F
:10164000284400F001F900BF00F07BFB00F08EFBA6
:1016500000F080FB17B12068406C3860206890F87B
:101660004800012808BF002504D02068416CB14320
:10167000416401252168002081F8480000F076FBD4
:101680002846BDE8F0812068011D4448FEF7CAFDE8
:10169000DAE72DE9F0411E4690460D460127044643
:1016A00000F058FB002E1CBF606C306094F84800BE
:1016B000022184F84810B8F1050F10D2DFE808F0D5
:1016C0000F03060E0A00616C294301E0616C491C9E
:1016D000616404E0022808BF00271BD0656401286C
:1016E00018D1201DFEF7C7FD2D4DE06A01212A69A2
:1016F0008140114329612C4900EB800001EB8000FF
:10170000211DFEF78FFDE06A2968C96A884288BFFB
:1017100000F017FB00F02AFB3846BDE8F0812DE908
:10172000F0471E4691460D4601270446FEF75EFD32
:1017300094F848108046022084F84800B9F1050F5B
:1017400010D2DFE809F00F03060E0A00606C284390
:1017500001E0606C401C606404E0022908BF0027BF
:1017600017D06564012914D10D4DE86A8946002817
:101770001CBF04F118010B481AD000BFFEF752FD40
:10178000E06A2968C96A884203D9002E18BFC6F8E2
:1017900000904046FEF731FD384607E094010020F6
:1017A000000000206C010020E0000020BDE8F08770
:1017B000201DFEF760FDE06A2A6909FA00F1114375
:1017C00029612D4900EB800001EB8000211DD5E748
:1017D0002DE9F0410D460446FEF708FD074694F852
:1017E0004800022184F84810616C491C616401289A
:1017F00015D1224EF06A4FF0010800281CBF04F1F9
:1018000018011F4810D000BFFEF70CFDE06A3168D8
:10181000C96A884203D9002D18BFC5F80080384630
:10182000BDE8F041FEF7E9BC201DFEF724FDE06AAB
:10183000326908FA00F1114331610F4900EB800071
:1018400001EB8000211DDFE770B50C4C05462068D8
:101850004560E0688542206800F1040104D2606BB5
:10186000BDE87040FEF7EABC206BFEF7E7FCA06A1B
:10187000A84288BFA56270BDE000002000000020E3
:101880006C010020F0B5FC4C83B00546D4F800C0D4
:101890000020089E1F46BCF1000F04BF03B0F0BD3E
:1018A0000295CDE90012062913DAFFF743FE02285C
:1018B0004FF0000306D0002269462068FEF788FD3D
:1018C00003B0F0BD324669462068FEF781FD03B0E3
:1018D000F0BD00233A4669466046FEF79BFE03B022
:1018E000F0BDE54C8CB0E0680168002907BF012617
:1018F00000250026C06818BF0568FFF7F8FA05A89C
:1019000000F091F90746059800282CD0FFF73BFA24
:1019100000231A4605A92068FEF7FCFE0028E2D045
:1019200005980028C0F2F080079F786900281CBF46
:10193000381DFEF7A0FCFFF7F8FCA168804688423E
:101940007ED2E068006800287ED0E068C068C56884
:101950000668281DFEF78FFC696A28468847E869F3
:1019600001284DD069E0002E3FD1BD423DD8FFF7A0
:101970000AFAE068C068C668301DFEF77CFCF069B2
:10198000012828D1B069366128447060B84207D870
:10199000B069791B81423CBF311D206909D205E045
:1019A000BD4201D9854204D9311DE068FEF746FCED
:1019B00011E000202168074669B1CDE900050296D3
:1019C000FFF7B8FD02284FF0000308D00022694657
:1019D0002068FEF7FDFC716A3046884798E73A4672
:1019E00069462068FEF7F4FCF5E7E91B2068FFF77D
:1019F00020F8FFF7C8F9002808BF00F0A2F987E730
:101A0000A8693044B04206D92D616860291DE0689C
:101A1000FEF714FC11E000202168814669B1CDE990
:101A200008060A95FFF786FD02284FF000031BD039
:101A3000002208A92068FEF7CBFCE068006801E0FE
:101A400006E001E0002880D1D4E90310C4E90301D5
:101A5000C4F8088005980A2856D2DFE800F00B0B7E
:101A60000B5542520B0B55424A4608A92068FEF717
:101A7000AFFCE2E70699B8693F61084478604045E9
:101A800005D8B869A8EB0101814204D233E0414591
:101A900034D9814232D8796A38468847F8690128B2
:101AA00032D102E0FEF7CAFB2EE00699BA690020A7
:101AB0001144226805463AB30397CDE90101FFF7C7
:101AC00039FD02284FF0000305D0002201A920684B
:101AD000FEF77EFC18E02A4601A92068FEF778FC94
:101AE00012E00698B86140443F617860804505D3B4
:101AF000B869002808D9391D2069D3E7391DE06885
:101B0000D0E7384600F0B3F900231A4605A920684B
:101B1000FEF700FE00287FF403AFE4E630B585B0A1
:101B2000002500F017F9544C206878B95348FEF7A7
:101B30006BFB5348FEF768FB5048E06014302061AF
:101B400000220C210120FEF7D8FB206000F00EF9E6
:101B5000206868B10122002000924A49CDE90110B5
:101B600003460390802248A14948FEF7B7FF054687
:101B700005B0284630BD2DE9F0471F46DDF820A00E
:101B800090460E00814608BF002424D0282000F093
:101B90000FF904001FD000F0DDF8374D286878B940
:101BA0003648FEF731FB3648FEF72EFB3348E86037
:101BB0001430286100220C210120FEF79EFB2860D2
:101BC00000F0D4F8C4F80090C4E90668C4E9087AC3
:101BD000201DFEF724FB2046BDE8F087264840681C
:101BE00070470068704710B5044600F0B3F86069AC
:101BF000002814BF0124002400F0B8F8204610BDCE
:101C000010B5044600F0A6F8246A00F0AFF82046AC
:101C100010BD70B50D46044600F09CF82562BDE885
:101C2000704000F0A3B82DE9F04383B08046FFF781
:101C30007CFB114C0746A068874228BF002044D295
:101C4000E068006800283BD0E068C068C5680668A6
:101C5000281DFEF710FB696A28468847E8690128B5
:101C60002AD1A8693044B04214D92D616860291D79
:101C7000E068FEF7E3FA1FE038000020A80100202A
:101C8000BC0100203C000020546D7220537663009C
:101C9000E318000800202168814669B1CDE90006FB
:101CA0000295FFF747FC02284FF0000314D00022F2
:101CB00069462068FEF78CFBE06800680028C3D105
:101CC000D4E90310C4E903010120C8F80000A760AB
:101CD00003B03846BDE8F0834A4669462068FEF7FF
:101CE00077FBE9E7FEF782FAFEE74FF0807C40F8E9
:101CF00004CC40F8081C294B40F80C3C40F8202C40
:101D0000403870474FF0E0202549416107210161CB
:101D10007047244810B5016841F47F0101600168F3
:101D200041F07F4101604FF0E0201D4941610721F2
:101D300001611D4900200860FEF726FA002010BD51
:101D400070471A494FF080500860BFF34F8FBFF3C0
:101D50006F8F704710B5FEF749FA13480168491CA8
:101D6000BFF34F8FBFF36F8F016010BD0E4908683E
:101D7000401E086018BF70470020FEF73EBA10B53D
:101D8000FEF734FAFEF798FF18B108494FF080507B
:101D90000860BDE810400020FEF72FBAE51C0008DF
:101DA0003F19010020ED00E04C00002004ED00E0B0
:101DB00070B506460024FFF79AF83C4800F1080386
:101DC000416800F1100569B93949A44621F00701BD
:101DD000C3E9001C44F6F872C5E900C2C1E900522B
:101DE00001214160002E3ED006F1080212F0070FDB
:101DF00004D002F00701C1F108010A44511E44F663
:101E0000F77C61453CBFDFF8ACC019682BD24B684A
:101E1000934205D20B68002B1CBF8C461946F6D1A5
:101E2000A94220D0DCF8003003F108040B68CCF89C
:101E300000304B689B1A102B11D901EB020C1D4D81
:101E4000CCF804304A60DCF804302A6856689E42B8
:101E500038BF1546F9D3CCF80020C5F800C0496852
:101E60000268511A0160FEF78EFF204670BD0028FF
:101E700008BF704710B5A0F10804FFF738F80D4807
:101E80006168026853688B4238BF1046F9D32260FC
:101E9000046006486168026811440160BDE81040B2
:101EA000FEF771BF0148006870477047500000207E
:101EB000D80100205800002038B50446012003F066
:101EC000BFFE4D490028086008BF38BD0121202011
:101ED00001F092F9102003218DF803008DF8021013
:101EE000052C0DD2DFE804F003050A0709000420E1
:101EF00004E0082002E0802000E09C20ADF8000013
:101F000069463E4800F02BFF38BD01463B48052995
:101F100028BF7047DFE801F00306090C0F00042119
:101F200000F096BF082100F093BF102100F090BF91
:101F3000802100F08DBF9C2100F08ABF01462F4810
:101F4000052928BF7047DFE801F00306090C0F00E0
:101F5000042100F07FBF082100F07CBF102100F0B9
:101F600079BF802100F076BF9C2100F073BF224929
:101F700001230A68117833EA010111701F4A1BD04E
:101F8000052828BF7047DFE800F003070B0F130098
:101F90000421104600F05CBF0821104600F058BF35
:101FA0001021104600F054BF8021104600F050BFB1
:101FB0009C21104600F04CBF052828BF7047DFE881
:101FC00000F003070B0F13000421104600F042BF7E
:101FD0000821104600F03EBF1021104600F03ABF25
:101FE0008021104600F036BF9C21104600F032BF21
:101FF0000148006803F0FCBD6800002000140140A7
:1020000010B500F095FF4FF4803000F0B2FF00BF34
:1020100000F0DDFF0128FBD10021084601F006F8A1
:10202000002001F034F84FF4806001F03EF84FF4E6
:10203000A06001F033F84FF4E0114FF4803000F06D
:10204000EAFF012000F0EFFF392000F0ABFF00288D
:10205000FAD0022001F00FF801F014F8082806D099
:10206000042000F0FFFD01F00DF80828F8D100F081
:1020700041FD0C484FF47A710068B0FBF1F0B0F10B
:10208000807F28BF10BD20F07F40411E4FF0E02030
:102090004161054AF02182F8141D00218161072168
:1020A000016110BDA00000200FE000E02DE9F0412B
:1020B000804684B00121142001F09EF804208DF8A0
:1020C0000F0003200026012408270F258DF80E009D
:1020D000B8F1000F2FD0B8F1010F1CBF04B0BDE85C
:1020E000F0814FF40058ADF80C8003A9484800F087
:1020F00036FE0121084601F07FF80D21022000F094
:10210000FBFE8DF804608DF80570CDF800808DF829
:102110000640684601F0DDF828208DF808008DF8AB
:1021200009508DF80A508DF80B4002A800F051FDBF
:1021300004B0BDE8F081ADF80C4003A9354800F0CB
:102140000EFE0121084601F057F80021084600F074
:10215000D3FE8DF804608DF8057000948DF806406C
:10216000684601F0B6F806208DF808008DF8095091
:102170008DF80A508DF80B4002A800F02AFD04B03B
:10218000BDE8F08110B510B1012806D00BE00121A7
:10219000204800F049FE014605E04FF400511C487C
:1021A00000F042FE0146084610BD70B5002510B192
:1021B000012825D02AE00121164800F035FE04460A
:1021C00000260A20FEF7D8FE44B1012C0CBF0024E3
:1021D0000324701CC6B2142EF3D317E0282DF8D2B6
:1021E000C5F128010029C8BFC5F1280002DCF0E7CD
:1021F000012C00D00224401EFAD14819C5B2E8E7EC
:102200004FF40051024800F00FFE0446204670BD16
:1022100000100140000801402DE9F047044688B055
:10222000042003F00DFD694E3060042003F008FD2A
:1022300070603168002918BF00287DD00121082076
:1022400000F0E3FF0121052000F0D6FF03208DF808
:102250001E0018208DF81F000E20ADF81C0007A9E5
:102260005B4800F07CFDD6E9000100250D60594A6D
:102270004FF6FF7805600B685B1C0B605B1CD2F8A7
:1022800000C06343BCFBF3F35B1E03600F68D2F82E
:10229000009007F1010C0CFB04FCB9FBFCFA0CFBF1
:1022A0001A9C474502D10D60056005E0B3F5803FFB
:1022B000E1D2BCF1000FDED13068474F04A900889D
:1022C000ADF8140070680088ADF81000ADF8165035
:1022D000ADF81250384601F060F96020ADF800000A
:1022E0000124ADF80240ADF80650ADF8085069463B
:1022F000384601F0DEF90821384601F0AAFDADF8B4
:102300000240ADF806506946384601F017FA082138
:10231000384601F0A8FDADF80240ADF80650694618
:10232000384601F051FA0821384601F0A2FD01219A
:10233000384601F064FD00E003E00121384601F079
:1023400051FC3068006808B0BDE8F08710B584B073
:102350006022ADF800200122ADF802200022ADF885
:102360000820ADF80600002904BF04B010BD1A4CC7
:1023700001290FD0022917D003291CBF04B010BDBA
:102380006946204601F020FA0821204601F071FD3F
:1023900004B010BD6946204601F08BF908212046A3
:1023A00001F057FD04B010BD6946204601F0C6F9A2
:1023B0000821204601F057FD04B010BD0121064858
:1023C00001F010BC0021044801F00CBC6C0000209E
:1023D00000080140A0000020000C004010B50121C1
:1023E0008CB0084600F0FFFEAD4C204602F086F8A7
:1023F000AC480090AC480021CDE901010420CDE9B2
:102400000301802005904000069080000790202066
:1024100008900002CDE909016946204602F0D5F88E
:102420000121204602F007F90CB010BDF0B58BB0C9
:1024300000248DF803400121082000F0DDFE9B4EB2
:102440000125ADF800506946304600F088FC0220B6
:10245000ADF800006946304600F081FC01210420FF
:1024600000F0CAFE1020ADF800006946904800F068
:1024700076FC0121102000F0BFFEADF80050694647
:102480008C4800F06CFC0121084600F0ACFE844F43
:10249000384602F033F883480090042682480396B9
:1024A000CDE901048020CDE9044040000690800081
:1024B0000790202008900002CDE9090469463846BB
:1024C00002F083F80121384602F0B5F801214802F4
:1024D00000F092FE4FF46020CDE902040094764CA7
:1024E0008DF804508DF805508DF81060694620462F
:1024F00001F074FE052301220821204601F0F1FEBF
:10250000052302220921204601F0EBFE05230322C8
:102510000421204601F0E5FE052304220A2120467D
:1025200001F0DFFE0121204601F08DFE0121204651
:1025300001F080FE204601F098FE204601F09AFE50
:102540000028FAD1204601F09DFE204601F09FFEB2
:102550000028FAD10121204601F0A1FE0BB0F0BD08
:102560005149002802BF0888A0F6C400704701281E
:1025700008BF488808D0022808BF888804D00328EC
:1025800014BF0020C8887047A0F6C40070472DE92A
:10259000F0414549DFF82481494D4A4E4A4FA1F1A7
:1025A000100430B3012841D002285CD003281EBF9C
:1025B00000200146BDE8F081C88802F072FD0022CB
:1025C000434602F065FC6FF00B0202F042FD002270
:1025D0002B46C4E9000102F055FC0022334602F00C
:1025E000C9FCC4E902013B46BDE8F041002202F00B
:1025F0004FBC088802F055FD0022434602F048FC1B
:102600006FF00B0202F025FD00222B46C4E9000109
:1026100002F038FC0022334602F0ACFCC4E90201AF
:102620003B46BDE8F041002202F032BC488802F08F
:1026300038FD0022434602F02BFC6FF00B0202F043
:1026400008FD00222B46C4E9000102F01BFC002219
:10265000334602F08FFCC4E902013B46BDE8F0417D
:10266000002202F015BC888802F01BFD00224346C0
:1026700002F00EFC6FF00B0202F0EBFC00222B4686
:10268000C4E9000102F0FEFB0022334602F072FCB6
:10269000C4E902013B46BDE8F041002202F0F8BB6C
:1026A000080002404C24014088000020000C01403A
:1026B00000080140001001400024014000C8A9406A
:1026C00000C899400020674000408F4070B501214C
:1026D00086B0880300F090FD0121042000F08CFDFD
:1026E0004FF48060ADF810000324B94E8DF812400D
:1026F00004258DF8135004A9304600F030FBE801A2
:10270000ADF810008DF8124018208DF8130004A9C0
:10271000304600F024FB00244FF47A300090ADF8EE
:1027200008400C20AB4EADF80440ADF80A00ADF8FF
:102730000640ADF80C406946304602F023F801220D
:1027400040F22551304602F0A0F8002240F22771F5
:10275000304602F09AF840F22551304602F06AF90C
:102760000121304602F088F84FF4407000F02AFA58
:1027700025208DF814008DF815508DF81640012095
:102780008DF8170005A800F024FA0121FF2002F0BF
:10279000CAFA914C6060012003F052FAA060012057
:1027A00003F04EFAE060616800291CBFA1680029AF
:1027B00004D000281EBF012006B070BD002006B066
:1027C00070BD10B50021834802F056F8824C606855
:1027D00003F00EFAA06803F00BFAE068BDE81040C1
:1027E00003F006BA30B47C49202501244B684FF031
:1027F000000C7B280ED00A467D28926811D092F8F2
:1028000000C00CF10104147003F80C00C8680078D3
:1028100030BC70471D7088680470C86880F800C0BC
:10282000F4E710781D54C868047088684A68007816
:10283000521C00F802C0E9E76748C168097801291D
:102840000CBF406865A0704770B5054616460C463B
:10285000084602F061FA10F0FF034FF00000014655
:102860000FD000BF14F8012BAA4206D1491CC9B2EF
:10287000B14202D1401CC0B270BD401CC0B29842EF
:10288000F0D3002070BD2DE9F04781460F460024AB
:102890004FF020080D46084602F03EFA10F0FF0205
:1028A0002046014606460FD015F8013B434507D1A7
:1028B000491CC9B2494503D1401C00F0FF0804E09F
:1028C000401CC0B29042EFD3B04609F1010000F0C5
:1028D000FF094FF0200A3D46384602F01DFA10F07D
:1028E000FF024FF0000001460FD000BF15F8013B7A
:1028F000534506D1491CC9B2494502D1401CC0B25A
:1029000004E0401CC0B29042F0D33046401E00F0BC
:10291000FF09384602F000FA40453BD9384602F03C
:10292000FBF9814536D807EB08052B4F386800289E
:1029300018BF03F05DF9042003F082F9386048B352
:10294000A9EB0801002928DD6A1E4FF0000C11F0E8
:10295000010F04D012F8013F03554FF0010C4B104A
:1029600013D000BF04EB0C0505F0FF0992F80180BD
:1029700000F809806D1C05F0FF0812F8027F00F8CE
:1029800008705B1E0CF1020CECD12144CCB2065550
:10299000BDE8F08712A0BDE8F0878C42F7DA00BFEF
:1029A00015F8013B0355621CD4B28C42F8DBEEE70C
:1029B00070B5084D0446C1B2284601F0B0FF402171
:1029C000284602F007F80028F9D0204670BD000024
:1029D0000008014000380140900000200000000085
:1029E0004E554C4C00000000644882B0016841F034
:1029F000010101604168624A11404160016821F4AF
:102A0000102121F080710160016821F480210160B2
:102A1000416821F4FE014160016821F0A05101608C
:102A20004FF47F0181600022C2620192009201682E
:102A300041F480310160016801F400310091019995
:102A4000491C0191009919B90199B1F5A06FF2D112
:102A5000016811F4003F08BF009245D001210091A8
:102A600048490A6842F010020A600A6822F003022C
:102A70000A600A6842F002020A60416841604168E7
:102A80004160416841F480614160C16A3E4A114041
:102A9000C162C16A41F4117141F48231C1620168BD
:102AA00041F080610160016811F0006FFBD0416866
:102AB00021F47C114160416841F4E81141600168F2
:102AC00041F080710160016811F0007FFBD0416826
:102AD00021F003014160416841F002014160416819
:102AE00001F00C010829FAD128494FF00060086074
:102AF00002B07047214830B44168254A11F00C03F8
:102B0000244918BF042B2CD0082B2AD14368D0F8B5
:102B100004C00F2404EA93430CF4803C0D2B14BF33
:102B20009B1C0623BCF1000F04BF1B4A5A4318D05C
:102B3000D0F82CC01CF4803FD0F82CC00CF00F0C47
:102B40000CF1010C0AD0C46AC56AC4F30314641CF6
:102B5000B2FBF4F2C5F30325AD1C6A43B2FBFCF2F1
:102B60005A430A6040680D4AC0F30310105C0A68BB
:102B700022FA00F0086030BC7047000000100240EC
:102B80000000FFF00020024000F0FEFF08ED00E032
:102B900000127A00A000002000093D00A4000020DF
:102BA0000648804706480047FEE7FEE7FEE7FEE7E7
:102BB000FEE7FEE7FEE7FEE7FEE7FEE7E92900089D
:102BC000510100082D4940F0FD7040F08060086020
:102BD000704710B4C27801784FF00F0C012322B374
:102BE000264A126801F1E02102F4E062C2F5E062D7
:102BF000120AC2F104042CFA02F290F801C00CFA95
:102C000004FC8478224042EA0C02120181F800247C
:102C1000007800F01F0103FA01F14009800000F183
:102C2000E020C0F8001110BC704701F01F0003FA4B
:102C300000F04909890001F1E021C1F8800110BCD0
:102C4000704721F07F0121F0604108430C49086082
:102C500070470C4A0029116814BF084321EA00009C
:102C6000106070474FF0E021042808690CBF40F065
:102C7000040020F004000861704700000CED00E043
:102C800008ED00E010ED00E010B5A0F18041B1F5D5
:102C900084311DD0B1F5806124D0B1F580612BD095
:102CA000B1F5806132D0B1F5806139D0B1F5806184
:102CB00040D0B1F5806118BF10BD0121080200F0BD
:102CC000B6FABDE8104000214FF4807000F0AFBAB2
:102CD0000121042000F0ABFA0021BDE810400420DF
:102CE00000F0A5BA0121082000F0A1FA0021BDE8FA
:102CF0001040082000F09BBA0121102000F097FA44
:102D00000021BDE81040102000F091BA01212020E0
:102D100000F08DFA0021BDE81040202000F087BAB5
:102D20000121402000F083FA0021BDE8104040203E
:102D300000F07DBA0121802000F079FA0021BDE881
:102D40001040802000F073BA10B50121084600F051
:102D50006EFA0021BDE81040012000F068BA2DE9AC
:102D6000F003CB7803F00F0213F0100F1CBF8B7829
:102D70001A430B784FF00F0713F0FF0F4FF00108C5
:102D80001ED00468002308250E8808FA03FC3CEADC
:102D9000060611D19E0007FA06F924EA090402FA90
:102DA00006F63443CE78282E08BFC0F814C003D0EE
:102DB000482E08BFC0F810C05B1C6D1EE4D1046033
:102DC0000B88FF2B9CBFBDE8F003704744684FF0B1
:102DD000000C08250CF108030E8808FA03F333EA07
:102DE000060607D06D1E0CF1010CF3D14460BDE85E
:102DF000F00370474FEA8C0607FA06F924EA090443
:102E000002FA06F63443CE78282E08BF4361CE7806
:102E1000482E08BF0361E5E74FF6FF7101800221EC
:102E200081700421C17070470246002092680A42F6
:102E300018BF01207047806880B2704702460020AA
:102E4000D2680A4218BF01207047C06880B270473C
:102E50000161704741617047002A14BF01614161FF
:102E60007047C160704741F4803282618161826144
:102E70008169806970472C4A13684FF6807C03EAA9
:102E80000C0343EA00100843106070472749C861EB
:102E9000704770B4244A10F0004F14BFD3695368D0
:102EA000C0F303444FF4401C3CEA00054FEA505C79
:102EB0004FEA0C1C86B206FA0CFC16D010F4801FE8
:102EC00008BF23EA0C0303D0032505FA04F4A34347
:102ED00043F07063002918BF4CEA030310F0004F61
:102EE00014BFD361536070BC7047546823F07063A3
:102EF00024F070645460EDE78A0721F0030101F1CA
:102F0000804101F58031120F0F23D1F808C09340A2
:102F10002CEA03038B608B689040184388607047ED
:102F20000249C1F8DC007047000001400000204267
:102F3000D548016841F0010101604168D34A114060
:102F40004160016821F4102121F080710160016865
:102F500021F480210160416821F4FE014160016893
:102F600021F0A05101604FF47F0181600021C16216
:102F70007047C5490A6822F480320A600A6822F460
:102F800080220A60B0F5803F04BF086840F48030BA
:102F900006D0B0F5802F06BF086840F4A020704727
:102FA0000860704700224309B749012B08BF096830
:102FB00003D0022B0CBF096A496A00F01F000123ED
:102FC00003FA00F0084218BF01221046704781B092
:102FD0000020AD49009000200A6812F4003F18BF9D
:102FE0000120009A521C0092B2F5A06F01D0002877
:102FF000F1D0086810F4003018BF012001B070470C
:10300000A1490A6822F0F80242EAC000086070474D
:103010009F49086070479C4A5368084323F474131F
:103020001843506070479A4908667047964AD36AB9
:10303000084323F00F0323F480331843D062704712
:103040009149CA6A22F0F0021043C86270478E4963
:10305000CA6A22F470621043C86270478C4988665D
:1030600070478949CA6A22F470421043C8627047A7
:1030700087490867704784494A6822F00302104371
:10308000486070478048406800F00C0070477E49F7
:103090004A6822F0F0021043486070477A494A6853
:1030A00022F4E06210434860704777494A6822F48E
:1030B000605242EAC00048607047734A0029517A62
:1030C00014BF084321EA0000507270477049C1F8EC
:1030D000D80070476C494A6822F440421043486067
:1030E00070476C49086070476B49086070476649D3
:1030F000002281F8202081F82020012803D0042814
:103100000CBF0520704781F82000704763490860B4
:1031100070475D490A6A1043086270476049086059
:10312000704770B458494A685E4B12F00C024FF079
:103130000F0418BF042A01D0082A01D003602AE036
:103140004A68D1F804C004EA92420CF4803C0D2A8B
:1031500014BF921C0622BCF1000F04BF524B5A430D
:1031600018D0D1F82CC01CF4803FD1F82CC00CF042
:103170000F0C0CF1010C0AD0CD6ACE6AC5F3031511
:103180006D1CB3FBF5F3C6F30326B61C7343B3FB08
:10319000FCF35A4302604A68444B04EA12129A5CF8
:1031A000D0F800C02CFA02F24260D1F804C0072423
:1031B00004EA1C2C13F80CC022FA0CFCC0F808C05E
:1031C000D1F804C004EADC2C13F80C30DA40C260F9
:1031D0004968032303EA9131354B595CB2FBF1F1A5
:1031E000016170BC7047284A0029516914BF084327
:1031F00021EA000050617047234A0029916914BFF9
:10320000084321EA0000906170471F4A0029D169F4
:1032100014BF084321EA0000D06170471A4A002910
:10322000916A14BF084321EA000090627047164A71
:103230000029D16814BF084321EA0000D06070471C
:10324000114A0029116914BF084321EA00001061E6
:1032500070471849086070470D49C86470470A49AB
:10326000C87170470848416A41F0807141627047F7
:10327000054A0146002092680A4218BF01207047A3
:103280000149887270470000001002400000FFF002
:1032900000004242C4054242C80542428004424204
:1032A0003C04424200127A0000093D00B8000020B0
:1032B000B4000020400442423A4900200860091D41
:1032C0000860091D0860091D086038493648086013
:1032D0007047837933490268002B34D00B6823EAA6
:1032E00002020A60091D0A6803689A430A600179AC
:1032F00001F1804101F582310A6803681A430A60CE
:103300002B4B19680268914319601A1D1168D0F897
:1033100000C021EA0C0111604179102908D001F1A7
:10332000804101F582310A680068104308607047E7
:103330001968D0F800C041EA0C01196011680068F2
:10334000084310607047007900F1804000F582303A
:1033500001689143016070470021016001710C22F6
:1033600042718171704713490A68104308607047C1
:103370000E4A0146002012680A4218BF0120704719
:103380000A4908607047074A00211268074B02404B
:103390001B6803421CBF002A0121084670470349ED
:1033A0000860704700040140FFFF0F001404014053
:1033B000080401401004014010B5A0F18041B1F5AE
:1033C00096313BD0B0F1804F4DD011F5943140D0C3
:1033D000B1F5806151D0B1F5806158D0B1F580610F
:1033E0005FD0B1F5806166D0B1F590316DD0B1F5A7
:1033F000C05175D0B1F580617DD0B1F580617DD0CF
:1034000011F59E317BD0B1F5806179D0B1F5806145
:1034100077D0B1F5903175D0B1F5806173D0B1F549
:10342000806118BF10BD01218804FFF700FFBDE8CF
:10343000104000214FF48020FFF7F9BE0121C8029F
:10344000FFF7F5FEBDE8104000214FF40060FFF7E4
:10345000EEBE01210220FFF7F3FE0021BDE810407F
:103460000220FFF7EDBE01210846FFF7E9FE00212B
:10347000BDE810400120FFF7E3BE01210420FFF763
:10348000DFFE0021BDE810400420FFF7D9BE012176
:103490000820FFF7D5FE0021BDE810400820FFF707
:1034A000CFBE01211020FFF7CBFE0021BDE8104068
:1034B0001020FFF7C5BE01212020FFF7C1FE00212B
:1034C000BDE810402020FFF7BBBE01214803FFF7F5
:1034D000AEFEBDE8104000214FF40050FFF7A7BE3C
:1034E0000121C804FFF7A3FEBDE8104000214FF4FE
:1034F0000020FFF79CBE0121080505E00DE017E064
:1035000020E029E033E03DE0FFF791FEBDE8104008
:1035100000214FF48010FFF78ABE01214805FFF714
:1035200086FEBDE8104000214FF40010FFF77FBE7B
:1035300001214020FFF784FE0021BDE8104040201B
:10354000FFF77EBE01218020FFF77AFE0021BDE853
:1035500010408020FFF774BE01210802FFF770FEC3
:10356000BDE8104000214FF48070FFF769BE0121D3
:103570000804FFF75CFEBDE8104000214FF48030E6
:10358000FFF755BE01214804FFF751FEBDE810408A
:1035900000214FF40030FFF74ABE10B40288FD4B03
:1035A000DFF8F4C3984218BF604511D0B0F1804FE6
:1035B0001CBFA0F18044B4F5806409D0A0F1804420
:1035C000B4F500641CBFA0F18044B4F5406403D19D
:1035D0004C8822F070022243A0F18044B4F580545C
:1035E0001CBFA0F18044B4F5A05403D0CC8822F4D1
:1035F0004072224302808A8882850A880285984226
:1036000018BF60450DD0A0F18042B2F5A0321FBFB7
:10361000A0F18042B2F5A232A0F18042B2F5A4320C
:1036200001D1097A01860121818210BC704710B452
:10363000028C22F001020284028C8388B0F818C048
:103640000C882CF0730C44EA0C0C0C8922F002025A
:1036500022434C882243A0F18044B4F596341CBF29
:10366000A0F18044B4F59A340DD0A0F18044B4F5B3
:10367000A0341FBFA0F18044B4F5A234A0F180446F
:10368000B4F5A4340DD14C8922F0080222438C8871
:1036900022F0040222438C8923F440732343CC8913
:1036A00023438380A0F818C0C9888186028410BC97
:1036B000704730B4028C22F010020284038CB0F800
:1036C00004C0028B0D8822F4E6444FF6FF7202EA32
:1036D00005252C430D8923F0200302EA05152B4311
:1036E0004D8802EA05152B43A0F18045B5F59635C6
:1036F0001CBFA0F18045B5F59A3517D14D8923F04F
:10370000800302EA05152B438D8823F0400302EA6B
:1037100005152B438D892CF4406C02EA850545EA9A
:103720000C0CCD8902EA850242EA0C0CA0F804C018
:103730000483C9880187038430BC704730B4028C8D
:1037400022F480720284028C8388B0F81CC00C883A
:103750002CF0730C44EA0C0422F4007C0D894FF623
:10376000FF7202EA052545EA0C0C4D8802EA0525A0
:1037700045EA0C0CA0F18045B5F596351CBFA0F1CB
:103780008045B5F59A3517D14D892CF4006C02EAC5
:10379000052545EA0C0C8D882CF4806C02EA052581
:1037A00045EA0C0C8D8923F4405302EA05152B439E
:1037B000CD8902EA0512134383808483C9888187F7
:1037C000A0F820C030BC704730B4028C22F4805284
:1037D0000284048C8288838B0D8823F4E64C4FF698
:1037E000FF7303EA052545EA0C0C0D8924F4005407
:1037F00003EA05352C434D8803EA05352C43A0F137
:103800008045B5F596351CBFA0F18045B5F59A35D4
:1038100005D18D8922F4804203EA85131A43828000
:10382000A0F81CC0C988A0F84010048430BC7047C0
:10383000828B22F440628283828B4FF6FF7303EA0D
:103840000121114381837047828B22F00C02828315
:10385000828B114381837047028B22F44062028382
:10386000028B4FF6FF7303EA012111430183704776
:10387000028B22F00C020283028B114301837047FA
:103880002DE9F05F0E460446B1F800904148DFF89C
:1038900008C1424FDFF80881DFF808E14988B288A3
:1038A00033894FF6FF75B9F1000F3ED0B9F1040F1F
:1038B0007CD0B9F1080FB4F8209076D029F4805963
:1038C000A4F82090B4F81CA0B4F820902AF4734A0D
:1038D00005EA022242EA0A0205EA03331A4305EA2C
:1038E000013B844218BF64450BD0B4F1804F18BF30
:1038F000BC4206D044451EBF744529F4024008432B
:1039000003D129F4005040EA0B0040F48050A28318
:103910002084B079A18B21F44061A183A18B05EAB9
:1039200000200843A083BDE8F09FB4F8209029F060
:103930000109A4F82090B4F818A0B4F8209005EA82
:1039400003131A432AF0F30A42EA0A02844218BF18
:10395000644508D0B4F1804F18BFBC4203D0444541
:1039600018BF744505D129F00200084340F001005A
:1039700004E029F00A00084340F00100228320847B
:10398000F088218B21F00C012183218B08432083B7
:10399000BDE8F09F002C01400034014000040040CD
:1039A00000080040000C004000E00DE0204600F060
:1039B000A3FBB079218B21F440612183218B05EA9F
:1039C000002008432083E3E729F48079A4F82090BD
:1039D000B4F81CA0B4F8209005EA03131A432AF0A7
:1039E000F30A05EA012B42EA0A02844218BF644541
:1039F0000BD0B4F1804F18BFBC4206D044451EBF67
:103A0000744529F42060084303D129F4007040EA8A
:103A10000B0040F48070A2832084F088A18B21F0F9
:103A20000C01A183A18B0843A083B1E72DE9F05FCE
:103A30000D464988002601270446002908BF0226B2
:103A4000AA88012A08BF02272888DFF82897DFF80C
:103A500028A7DFF828B72B894FF6FF78002843D036
:103A6000204600F049FBA879218B21F44061218395
:103A7000218B08EA0020084320832989208C20F02C
:103A800001002084228B208C08EA011122F0F3022D
:103A9000394311435C4518BF4C451FD0B4F1804FEA
:103AA00018BF54451AD0A4F18043B3F500631CBF7E
:103AB000A4F18043B3F5406310D020F00A003043F6
:103AC00040F0010021832084E888218B21F00C0143
:103AD0002183218B08432083BDE8F09F20F0020062
:103AE000304340F00100EDE7208C20F001002084FD
:103AF000B4F818C0208C08EA03131A432CF0F30C16
:103B000042EA0C025C4518BF4C452FD0B4F1804FFF
:103B100018BF54452AD0A4F18043B3F500631CBFFD
:103B2000A4F18043B3F5406320D020F00A0008439D
:103B300040F0010022832084E888218B21F00C01D1
:103B40002183218B084320832B893A463146204626
:103B500000F0D2FAA879218B21F440612183218BD6
:103B600008EA002008432083BDE8F09F20F002000F
:103B7000084340F00100DDE70A884B88B1F806C031
:103B80001A438B8843EA0C031A430B891A434B8967
:103B900089891A431143A0F8441070474FF6FF710A
:103BA000818000210180C180418001727047002125
:103BB000018041808180C180018141818181C181F9
:103BC000704700210180418001228280C1800181F3
:103BD00070470021018041808180C1800181418145
:103BE000818170470029018814BF41F0010121F053
:103BF0000101018070470029B0F8441014BF41F45E
:103C00000041C1F30E01A0F844107047002A8289D8
:103C100014BF114322EA01018181704781827047FC
:103C20001143A0F848107047002A828914BF11433D
:103C300022EA010181817047018921F00701018198
:103C40007047028922F07002114301817047028996
:103C500022F0700211430181018941F007010181C5
:103C6000704770B594460D460446602943D0208CB9
:103C700020F001002084218B208C4FF6FF7202EA95
:103C8000031221F0F30142F001021143A4F180423A
:103C9000B2F596321CBFA4F18043B3F59A3323D01A
:103CA000B4F1804F1CBFA4F18043B3F580631BD0F7
:103CB000A4F18043B3F500631CBFA4F18043B3F5C6
:103CC000406311D020F00A0040EA0C0040F00100EF
:103CD00021832084208920F07000284320812089BE
:103CE00040F00700208170BD20F0020040EA0C0087
:103CF00040F00100ECE70122614600F0FDF9E9E740
:103D000010B4B0F808C04FF6FF7404EA03231A4356
:103D10000CF0FF0C114341EA0C01018110BC70470B
:103D200010B4B0F808C04FF6FF7404EA03231A4336
:103D30000CF0FF0C114341EA0C010181018941F0B3
:103D40007701018110BC704710B4B0F808C04FF67D
:103D5000FF7404EA03231A430CF0FF0C114341EAF9
:103D60000C010181018941F48041018110BC70473F
:103D7000018582827047028822F07002114301801F
:103D8000704730B40589B0F818C0048C25F00705D9
:103D900029432CF0030C2CF4407C40F201154CEA32
:103DA000050C4FF6FF7505EA031324F022041A43AD
:103DB00022430181A0F818C0028430BC7047028BF6
:103DC00022F07002114301837047028B4FF6FF739C
:103DD00022F4E04203EA0121114301837047828B00
:103DE00022F07002114381837047828B4FF6FF737C
:103DF00022F4E04203EA0121114381837047002944
:103E0000018814BF41F0800121F0800101807047DA
:103E10000029818814BF41F0040121F00401818050
:103E200070470029818814BF41F0080121F0080182
:103E3000818070470029818814BF41F0010121F081
:103E4000010181807047028B22F008021143018337
:103E50007047028B4FF6FF7322F4006203EA0121E0
:103E6000114301837047828B22F008021143818342
:103E70007047828B4FF6FF7322F4006203EA012140
:103E8000114381837047028B22F0040211430183A6
:103E90007047028B4FF6FF7322F4806203EA012120
:103EA000114301837047828B22F004021143818306
:103EB0007047828B4FF6FF7322F4806203EA012180
:103EC000114381837047028B22F0800211430183EA
:103ED0007047028B4FF6FF73C2F30E0203EA012113
:103EE000114301837047828B22F08002114381834A
:103EF0007047828B4FF6FF73C2F30E0203EA012173
:103F0000114381837047028C22F002021143018425
:103F10007047028C22F00802114301847047028C22
:103F20004FF6FF7322F0200203EA011111430184CE
:103F30007047028C4FF6FF7322F0800203EA0111F2
:103F4000114301847047028C4FF6FF7322F4007214
:103F500003EA0121114301847047028C4FF6FF737D
:103F600022F4006203EA0121114301847047028CAC
:103F70004FF6FF7322F4005203EA0131114301842A
:103F800070470123B0F820C08B402CEA0303038460
:103F9000038C02FA01F11943018470470423B0F83D
:103FA00020C08B402CEA03030384038C02FA01F146
:103FB00019430184704710B44FF0010C048C00F1D8
:103FC00018030CFA01FC24EA0C0CA0F820C000290C
:103FD00018BF082910D0081FC0F34E00184401680C
:103FE00021F4E041016001684FF6FF7303EA022209
:103FF0001143016010BC704703EB5100016821F0D0
:104000007001016001681143016010BC7047002914
:10401000018814BF41F0020121F0020101807047C4
:104020000029018814BF41F0040121F0040101803E
:1040300070470029818814BF41F0800121F0800180
:1040400081807047028822F00802028002881143B2
:1040500001807047828822F070028280828811433A
:1040600081807047028922F0070202810289114390
:1040700001817047028922F0800202810289114386
:1040800001817047818470478185704781867047C0
:104090000187704781877047A0F8401070470288F9
:1040A00022F4407202800288114301807047808EA2
:1040B0007047008F7047808F7047B0F8400070479E
:1040C000808C7047008D704702460020128A0A4299
:1040D00018BF01207047C94301827047038A00223C
:1040E00080890B4200EA01001CBF00280122104613
:1040F0007047C9430182704770B4B0F820C02CF0FB
:10410000100CA0F820C0068BB0F820C04FF6FF744A
:1041100026F4734604EA0333334304EA02221A43C3
:10412000A0F1804304EA0115B3F596331CBFA0F15A
:104130008043B3F59A3314D0B0F1804F1CBFA0F187
:104140008043B3F580630CD0A0F18043B3F50063E6
:104150001FBFA0F18043B3F540632CF0A0031943C7
:1041600002D12CF02001294341F010010283018487
:1041700070BC70470034014000040040002C014036
:1041800010B5A0F18041B1F5923111D0B1F5806147
:1041900019D0B1F5A05118BF10BD0121C803FFF718
:1041A00046F8BDE8104000214FF40040FFF73FB84B
:1041B00001214802FFF73BF8BDE8104000214FF411
:1041C0000070FFF734B801218802FFF730F8BDE82E
:1041D000104000214FF48060FFF729B8426891F841
:1041E00004C022F4807222F470220B6842EA0C228E
:1041F0001A4342608268BE4B1A40D1E902C343EAC7
:104200000C0391F805C042EA4C021A438260C26A6C
:10421000097C22F47002491EC9B242EA0151C1620E
:10422000704700210160017141718160C16001210D
:10423000017470470029816814BF41F0010121F029
:104240000101816070470029816814BF41F48071C9
:1042500021F4807181607047002A4268C9B214BF9E
:10426000114322EA010141607047816841F0080171
:104270008160704701460020896811F0080F18BF5F
:1042800001207047816841F0040181607047014658
:104290000020896811F0040F18BF01207047002921
:1042A000816814BF41F4A00121F4A001816070472E
:1042B00001460020896811F4800F18BF0120704763
:1042C0004268491E22F4604242EA4131416070472F
:1042D0000029416814BF41F4006121F4006141608C
:1042E000704730B4072409290DD9C568A1F10A0C1B
:1042F0000CEB4C0C04FA0CF425EA040403FA0CF35E
:104300002343C3600AE0056901EB410C04FA0CF495
:1043100025EA040403FA0CF3234303611F23072A4D
:104320000CD2D0F834C0521E02EB820293402CEA29
:10433000030391401943416330BC70470D2A0CD2EE
:10434000D0F830C0D21F02EB820293402CEA030364
:1043500091401943016330BC7047D0F82CC00D3A2E
:1043600002EB820293402CEA030391401943C1629D
:1043700030BC70470029816814BF41F4801121F4DA
:10438000801181607047C06C80B2704759480068E6
:1043900070470029416814BF41F4806121F48061B5
:1043A000416070470029416814BF41F4805121F4F5
:1043B000805141607047826822F4E042114381607D
:1043C00070470029816814BF41F4004121F4004185
:1043D000816070470029816814BF41F4021121F403
:1043E00002118160704701460020896811F4001FA6
:1043F00018BF0120704730B4072409290DD9C568BA
:10440000A1F10A0C0CEB4C0C04FA0CF425EA0404A0
:1044100003FA0CF32343C3600AE0056901EB410C86
:1044200004FA0CF425EA040403FA0CF323430361B1
:10443000836BC3F3015CA2EB0C02921C02EB8202C1
:104440004FF01F0C0CFA02FC23EA0C0391401943B5
:10445000816330BC7047826B491E22F4401242EAED
:1044600001518163704781B008440090026001B03F
:10447000704781B0084428300090006801B080B2D5
:104480007047426822F4007222F4400211434160F6
:104490007047416282627047426822F01F021143F6
:1044A0004160704714490028086814BF40F40000B8
:1044B00020F40000086070470246002012680A429B
:1044C00018BF01207047C943016070470022D0F82F
:1044D00004C00B0AC9B200680CEA010118421CBFF3
:1044E00000290122104670476FEA112101607047D0
:1044F000FDF7F1FF4C2401400824014001684FF60C
:10450000FE72114001600021016041608160C16064
:10451000684A6949904204BF486840F00F0022D0C1
:10452000664A904204BF486840F0F0001BD0644ADD
:10453000904204BF486840F4706014D0614A9042D1
:1045400004BF486840F470400DD05F4A904204BFF9
:10455000486840F4702006D05C4A904204BF486826
:1045600040F4700001D148607047594A904204D12C
:10457000486840F0706048607047564A111F90428A
:1045800004BF086840F00F0014D0534A904204BFA3
:10459000086840F0F0000DD0504A904204BF08680F
:1045A00040F4706006D04E4A904204BF086840F460
:1045B000704001D1086070474A4A904218BF704766
:1045C000086840F470200860704710B40268D1F8A1
:1045D00020C08B686FF30E1243EA0C03D1E904C4C8
:1045E0004CEA040C43EA0C03D1F818C043EA0C036C
:1045F000D1F81CC043EA0C03D1F824C043EA0C03F1
:10460000D1F828C043EA0C031A430260CA6842602A
:104610000A6882604968C16010BC7047002101606F
:1046200041608160C160016141618161C16101627C
:104630004162816270470029016812BF41F00101A7
:104640004FF6FE72114001607047002A026814BFE5
:10465000114322EA010101607047416070474068E0
:1046600080B27047002110F0805F14BF1E4A124ACA
:104670001268024218BF01210846704710F0805F9F
:1046800019BF1A4908600C4948607047002110F0B2
:10469000805F14BF144A084A1268024218BF012101
:1046A0000846704710F0805F19BF10490860024942
:1046B0004860704708000240000002401C000240B1
:1046C0003000024044000240580002406C000240AA
:1046D00080000240080402401C04024030040240F2
:1046E0004404024058040240000402400404024012
:1046F00010B5A0F18041B1F59C3117D011F574418E
:104700001FD0B1F5806127D0B1F580612FD0B1F510
:10471000806118BF10BD01210805FEF791FDBDE8BD
:10472000104000214FF48010FEF78ABD012188035C
:10473000FEF77DFDBDE8104000214FF48040FEF7FC
:1047400076BD01214804FEF77BFDBDE81040002145
:104750004FF40030FEF774BD01218804FEF770FDB0
:10476000BDE8104000214FF48020FEF769BD012113
:10477000C804FEF765FDBDE8104000214FF400209D
:10478000FEF75EBD30B50446008A85B00D464CF696
:10479000FF710840E98808432082A0894EF6F31192
:1047A0000840A9882A8911436A8910430843A081D7
:1047B000A08A4FF6FF410840A9890843A0826846B5
:1047C000FEF7AFFCA4F18040B0F59C300CBF03981D
:1047D0000298A18911F4004F00EBC00101EB001019
:1047E000296814BF49008900B0FBF1F0954A6FF0C9
:1047F000180CA2FB0031490909010B0903FB0CF35A
:1048000000EB8300A38913F4004F4FF0320314BF71
:1048100003EBC00003EB0010A2FB00204FEA501096
:1048200014BF00F0070000F00F000843208105B01E
:1048300030BD4FF41651016000218180C18001819B
:104840000C22428181817047028A4FF2FF031A4095
:104850000B88B1F802C043EA0C03B1F804C0C98860
:104860004CEA010119431143018270470021018084
:1048700041808180C18070470029818914BF41F443
:10488000005121F4005181817047C1F3421301F0BE
:104890001F014FF0010C0CFA01F1012B08BF0C3085
:1048A00003D0022B0CBF10301430002A026814BF52
:1048B000114322EA010101607047002A828A14BF75
:1048C000114322EA010181827047028A22F00F021D
:1048D0000282028A114301827047828922F40062B7
:1048E000828182891143818170470029818914BFA7
:1048F00041F0020121F0020181817047028A22F019
:1049000020020282028A1143018270470029018A33
:1049100014BF41F4804121F4804101827047C1F30A
:104920000801818070478088C0F308007047818942
:1049300041F0010181817047028BD2B20283028B68
:1049400042EA012101837047028B02F47F42028315
:10495000028B1143018370470029818A14BF41F003
:10496000200121F02001818270470029818A14BF33
:1049700041F0100121F01001818270470029818AE5
:1049800014BF41F0080121F008018182704700291D
:10499000818914BF41F40041C1F30E018181704748
:1049A0000029818A14BF41F4006121F400618182F1
:1049B0007047828A22F004028282828A11438182B5
:1049C00070470029818A14BF41F0020121F00201E1
:1049D000818270470246002012880A4218BF0120D7
:1049E0007047C9430180704710B401F01F020124D1
:1049F0000023C1F3421C04FA02F2BCF1010F04BF10
:104A0000B0F80CC00CEA020208D0BCF1020F0CBFD7
:104A1000B0F810C0B0F814C00CEA0202090A00880D
:104A200004FA01F10840002A1CBF0028012318469F
:104A300010BC7047090A012202FA01F1C943018042
:104A4000704700001F85EB5188B08AA0D0E90010A4
:104A5000CDE9001089A0D0E90010CDE9021089A0AD
:104A600089A100680690D1E90001CDE90401002088
:104A7000FDF79BFB02280AD001280DD088B104A9BC
:104A800083A000F04BFCC820FCF776FAEFE76946FC
:104A90007FA000F043FCF6E702A97DA000F03EFCF9
:104AA000F1E706A97AA000F039FCECE70120FDF758
:104AB00069FB002804BF0020FDF759FA0A20FCF723
:104AC0005BFAF3E784B0FDF79BFAFDF7FFFD0420E6
:104AD000FDF7F2F90420FDF731FA0020FDF7E6FAC0
:104AE0000120FDF7E3FAFDF7A1FC0022022164207A
:104AF000FBF703FC674C002160606420FBF734FC8B
:104B0000A06041F28830FDF787FB00F0B9FA4FF062
:104B10006632614B00F0BCF900F0D0FA0121FDF7DC
:104B200015FC00250120CDE9000502952B468022C9
:104B30005AA1AFF287000395FBF7D0FF6068002809
:104B40001CBFA06800280DD00220CDE9000500237D
:104B50000295802255A1AFF20F100395FBF7BEFF1F
:104B6000FCF7B7FBFEE70020FDF701FA0020FDF798
:104B7000CCF93220FCF700FAF5E70120FDF7F7F950
:104B80006420FCF7F9F9F8E70220FDF7F0F9C820F6
:104B9000FCF7F2F9F8E70320FDF7E9F94FF4FA70B2
:104BA000FCF7EAF9F7E73B4C82B000235A1E19469E
:104BB000A068FBF7AFFD6068FBF716FF0028F4D094
:104BC00000231A4669466068FBF7A4FD012804BF6C
:104BD0009DF800000028E8D19DF80100FDF702FED5
:104BE0000128E2D1FDF728FE01460120FDF74BFE2A
:104BF000014634A000F092FBD7E738B50020354DD0
:104C00008DF8000040F225512846FFF7EDFE214CBB
:104C100070B12846FFF787FE8DF801000023224679
:104C200069466068FBF7F6FC2146A068FBF749FD82
:104C30002068002808BF38BD4FF080502649086022
:104C400038BD26A112A000F069FB4FF4FA70FCF702
:104C500093F9F6E70320FDF783FC00F011FA024612
:104C60000B4623A000F05AFB4FF4FA70FCF784F9CE
:104C7000F0E70000486F6C6400000000446F776E3E
:104C800000000000557000004E756C6C00000000C4
:104C900025730A00C80000206666EE3F4C65645F1D
:104CA000426C696E6B5F35306D7300004275745FE6
:104CB000436865636B5F53746174655F5461736BC4
:104CC0000000000044656C61793A202573206D7303
:104CD0000A0000000038014004ED00E054657374E0
:104CE0002074727579656E20556172742E00000013
:104CF00025660A0040EA01039B0703D009E008C9C2
:104D0000121F08C0042AFAD203E011F8013B00F890
:104D1000013B521EF9D27047421C10F8011B0029BA
:104D2000FBD1801A704710B54843044600F088FF55
:104D3000002805D00021002C02D0641E0155FAE79E
:104D400010BD2DE9FE4F804681EA0300C00F0C46DE
:104D5000009021F0004123F00045B8EB0200A9418A
:104D600005D24046214690461C460B46024623F09B
:104D70000040104347D0270DC7F30A00C3F30A5180
:104D80000290401A019040286BDAC3F3130040F4FC
:104D9000801B0098924620B10023D2EB030A63EBFC
:104DA0000B0B01985946C0F14002504600F0E6F95D
:104DB00006460D4650465946019A00F0FEF910EBA2
:104DC00008006141002487EA115284EAE7731A431C
:104DD00040D0009A62B3019A012A4FEA075215DCCB
:104DE000001B61EB02014FF0004202EA0752CDE9DD
:104DF0000042001C41F5801132462B4600F0FEF9BE
:104E000003B0BDE8F08F40462146F9E7001B61EB97
:104E10000201001C41F5801300185B412018A2F527
:104E2000001747EB030140EAD570B6196D4111E058
:104E30006D084FEA360645EAC0754FEA0752001B77
:104E400061EB0201001C41F5801149084FEA300076
:104E50000019514132462B4603B0BDE8F04F00F037
:104E6000BEB90098012240000023D0EB020263EBA0
:104E7000E073009821464FEAE074B8EB000061EB64
:104E80000401E9E783F000435BE781F0004158E764
:104E90002DE9FE4F81EA030404F0004421F00041B3
:104EA00000944FF0000B23F0004350EA01045ED061
:104EB00052EA03045BD0C3F30A54C1F30A552C44ED
:104EC000A4F2F3340194A0FB0254C1F3130141F4A2
:104ED0008011C3F3130343F4801301FB024400FB6E
:104EE000034E840A970A44EA815447EA8357A4FB95
:104EF000076802958D0A05FB07854FEA932C04FB92
:104F00000C542705029D4FEA065847EA1637B5EBC1
:104F100008056EEB070C870E920E47EA811742EAEE
:104F20008312A7FB0201B6EB0B0164EB00042B0D0F
:104F300043EA0C335E1844EB1C50DA465146E7FB5B
:104F40000201C5F313044FEA0B3343EA14534FEA4B
:104F50000432019C43EA0603A4F10C040294009C71
:104F6000CDE900B400F04AF903B0BDE8F08F0020AD
:104F70000146F9E72DE9F04D81EA030404F0004B06
:104F800021F0004514464FF0000A23F0004150EA9A
:104F9000050220D054EA01021DD0C5F30A5702468B
:104FA000C5F31303C1F31300C1F30A5640F480158F
:104FB00043F48013A7EB0608101BD64608F2FD3811
:104FC00073EB050002D308F1010801E092185B4180
:104FD000B8F1000F03DA00200146BDE8F08D002093
:104FE0004FF48011064684460EE0171B73EB05074D
:104FF00005D3121B63EB050306434CEA010C490879
:105000004FEA300092185B4150EA0107EDD152EAB5
:10501000030012D082EA040083EA0501084305D0A8
:10502000101BAB4106D20122002306E000224FF004
:10503000004302E06FF0010253101AEB06004CEB44
:10504000085110EB0A0041EB0B01BDE8F04D00F0F8
:10505000C6B870B521F0004303430CD0C1F30A5524
:105060000024D5EB040564EB0403D617AD1AB34155
:1050700002DB0020014670BD201841EB025170BDDB
:105080000EB5C10F80EAE0700844CA07002140F263
:1050900033438DE80E000A460B4600F0AFF803B02C
:1050A00000BD0EB540F2334102910021CDE900115F
:1050B0000A460B4600F0A2F803B000BDC1F30A5245
:1050C00010B5C1F3130140F2FF3341F480119A424D
:1050D00001DA002010BD40F233439A42A2F233427B
:1050E00003DC524200F059F810BD904010BD30B5BD
:1050F0000B46014600202022012409E021FA02F596
:105100009D4205D303FA02F5491B04FA02F528442F
:10511000151EA2F10102F1DC30BD2DE9F05F05465C
:10512000002092469B4688460646814640241BE066
:10513000284641464746224600F02FF853465A4635
:10514000C01A914110D311461846224600F016F8B5
:105150002D1A67EB01084F4622460120002100F07E
:105160000DF817EB00094E41201EA4F10104DFDC0D
:10517000484631462A464346BDE8F09F202A04DBD4
:10518000203A00FA02F1002070479140C2F120035A
:1051900020FA03F3194390407047202A04DB203A99
:1051A00021FA02F00021704721FA02F3D040C2F147
:1051B00020029140084319467047202A06DBCB178E
:1051C000203A41FA02F043EAE07306E041FA02F3C2
:1051D000D040C2F12002914008431946704710B5F3
:1051E000141E73F1000408DA401C41F1000192180A
:1051F0005B411A4301D120F0010010BD2DE9F04DB3
:1052000092469B4611B1B1FA81F202E0B0FA80F207
:1052100020329046FFF7B2FF04460F4640EA0A00EC
:1052200041EA0B0153465A46084313D0114653EA4C
:10523000010019D0C8F140025046FFF7AEFF054605
:105240000E46504659464246FFF798FF084305D0A0
:10525000012004E020463946BDE8F08D00200543DA
:1052600046EAE0762C4337430A986305E40AA0EB4C
:1052700008000022FD0A44EA47540A3002D5002003
:105280000146E9E7010510196941DDE90845001902
:105290006941BDE8F04DA2E7C1F30A52C1F3130121
:1052A00040F2FF3341F480119A4202DA00200146B5
:1052B000704740F233439A42A2F2334202DC524238
:1052C000FFF76BBFFFF75ABF30B5041E71F1000442
:1052D00004DB4FF00044404264EB0101141E73F103
:1052E000000405DB1C464FF00043524263EB04030D
:1052F000994208BF904230BD064C074D06E0E06879
:1053000040F0010394E8070098471034AC42F6D30C
:10531000FAF722FFAC5C0008CC5C00080FB4054B28
:1053200010B503A9044A029800F0CAF810BC5DF851
:1053300014FB0000B1290008D400002002E008C8D6
:10534000121F08C1002AFAD170477047002001E0FF
:1053500001C1121F002AFBD1704700002DE9FF5F39
:10536000DDE90220010DDDF838B0024318D044F623
:105370001050A1F2FF3141430D140F98012820D0A5
:10538000A5EB0B00401C5FEA000A4FF00004474EFB
:10539000DFF81C91A046504616D5CAF1000728E058
:1053A0000F98012443A2012808D0002100980F9BE8
:1053B000C0E90021C0E90243BDE8FF9F6FEA0B018D
:1053C000F4E7CBF10000DEE7074612E0F80707D06C
:1053D0002246334640464946FFF75AFD80468946F5
:1053E0002246334610461946FFF752FD04460E4644
:1053F0007F10002FEAD1DDE90201BAF1000F424629
:105400004B4602DAFFF744FD01E0FFF7B3FD044627
:105410000E460022284BFFF757FF03D84FF0FF300E
:10542000014607E00022254B20463146FFF789FC64
:10543000FFF732FF102409E0002C0ADB0A220023C8
:10544000FFF76BFE019B30321A55641E50EA0102D1
:10545000F2D1641C019AC4F1110314440F9A012A79
:1054600003D0012208430DD10AE0084304D00020F4
:105470004FF0110B0F9080E7A3EB0B056D1E0DE0B5
:105480005B4504DD4FF0000205F1010504E003DA9D
:105490004FF00002A5F10105002AECD000980F9909
:1054A000C0E90231C0E9004586E700000000244061
:1054B0000000F03F300000000000F0430000E03F3B
:1054C0002DE9FF4F95B09B468946064600250FE221
:1054D000252877D100242746F84A0121059400E0C9
:1054E000044316F8013F203B01FA03F01042F7D1C4
:1054F00030782A2811D06FF02F033078A0F13002D5
:10550000092A16D8059A44F0020402EB820203EB42
:1055100042021044761C0590EFE759F8042B0592DF
:10552000002A03DA504244F40054059044F0020487
:10553000761C30782E2816D116F8010F44F004049A
:105540002A280DD06FF02F023078A0F13003092BFC
:1055500009D807EB870302EB4303C718761CF3E770
:1055600059F8047B761C30786C280FD006DC4C2868
:1055700017D068280DD06A2814D104E0742810D000
:105580007A280FD10DE044F400140AE044F48014AA
:1055900001E044F440147278824202D104F5801490
:1055A000761C761C307866280BD013DC582877D010
:1055B00009DC002875D04528F6D04628F4D04728C5
:1055C0001AD19DE118E0632835D0642879D0652888
:1055D00012D195E1702873D008DC6728F1D06928D2
:1055E0006FD06E280DD06F2806D1B5E073282CD06F
:1055F000752875D0782874D05A46179990476D1C35
:1056000075E1C4F30250022809D003280DD0D9F85F
:10561000001004280DD00D6009F1040967E1D9F8E4
:105620000010EA17C1E90052F6E7D9F800100D8022
:10563000F2E70D70F0E719F8041B8DF80010002058
:105640008DF80100EA46012003E059F804AB4FF061
:10565000FF3061074FF0000102D40DE008F10101B5
:105660008846B9420FDA8045F8DB1AF8081000299D
:10567000F4D108E008F1010188468142FADB1AF80A
:1056800008100029F6D105985B46A0EB08072146D3
:105690003846179A00F094FA284400EB080507E012
:1056A0004DE029E10DE01AF8010B5A461799904791
:1056B000B8F10108F7D25B4621463846179A13E144
:1056C00042E00A220092C4F302524FF0000A022A7A
:1056D00008D059F804CB032A4FEAEC710AD00DE048
:1056E00029E02AE009F1070121F00702F2E802C1EE
:1056F000914609E00FFA8CFC4FEAEC71042A03D1C1
:105700004FFA8CFC4FEAEC71002907DA0A460021B7
:10571000DCF1000C61EB02012D2202E0220504D530
:105720002B228DF80420012203E0E20701D0202281
:10573000F7E7904659E00A2102E010220DE010211F
:105740004FF0000A00910BE010224FF0000A44F0E5
:1057500004040827009203E008224FF0000A009298
:10576000C4F30252022A05D059F804CB0021032ABF
:1057700008D009E009F1070121F00702F2E802C1AF
:10578000914605E01FFA8CFC042A01D10CF0FF0CB5
:105790004FF00008220728D5702806D0009B83F020
:1057A000100353EA0A0305D00EE040228DF80420CE
:1057B000012208E05CEA010206D030228DF80420C4
:1057C0008DF8050002229046009B83F0080353EAFF
:1057D0000A030AD15CEA010201D1620705D5302231
:1057E0008DF804204FF001087F1E582804D034A003
:1057F00003900EA802900DE036A0F9E753466046EC
:10580000009AFFF78AFC84460398825C0298401E47
:10581000029002705CEA0100F0D1029806A9081A11
:1058200000F1200A600702D524F4803400E001274B
:10583000574502DDA7EB0A0000E0002000EB0A015B
:10584000009005984144401A0590E00306D45B4659
:105850002146179A059800F0B3F90544002706E0A1
:1058600001A85A46C05D179990476D1C7F1C47459B
:10587000F6DBE0030CD55B462146179A059800F04D
:105880009FF9054404E030205A46179990476D1C53
:105890000099481E00900029F5DC08E00298029962
:1058A0005A460078491C0291179990476D1CBAF12D
:1058B0000001AAF1010AF1DC65E1000009280100FC
:1058C0003031323334353637383961626364656676
:1058D0000000000030313233343536373839414238
:1058E000434445460000000000F058F90544761C8A
:1058F000307800287FF4ECAD19B02846BDE8F08F71
:10590000620700D4062709F1070222F0070CFCE821
:105910000223E14603F000485FEA080C02D00FF2D0
:10592000702C0DE05FEA045C02D50FF2682C07E0F2
:105930005FEAC47C02D00FF2602C01E0AFF2700C81
:105940004FF0FF3823F00043CDF850C065280CD04D
:1059500006DC452809D046281DD047283DD13DE02A
:10596000662818D067287ED138E00021112F01DB8E
:10597000112000E0781CCDE9000106A90EA8FFF770
:10598000EDFCDDE90F010E9A03910021009207F171
:10599000010A04914DE04FF000400097CDE901105D
:1059A00006A90EA8FFF7DAFCDDE90F0203920E9BB1
:1059B00011990022DDF80CA00093049211B9791C12
:1059C00000EB010AB7EB0A0004D4C0F1FF3007F185
:1059D000010A0490AAEB0700019044E0012F00DACD
:1059E00001270021112F01DD112000E03846CDE90B
:1059F000000106A90EA8FFF7B1FCDDE90F010E9A20
:105A00000391002104910092BA4621070CD4039916
:105A1000514500DA8A46BAF1010F05DD009AAAF174
:105A20000101515C302908D0B84202DA10F1040FAC
:105A300006DA0121CDE9011015E0AAF10101E9E73B
:105A4000002805DC049901440491AAEB000102E05E
:105A5000411C514500DD8A460499401A401C0190C2
:105A60004FF000400290200704D40198504501DB1C
:105A7000CDF8048000208DF84F0002980DF14F07FB
:105A8000B0F1004F25D02B200E9002984FF0020865
:105A900000280CDA404202902D200E9007E00A21E7
:105AA0000298FFF724FB3031029007F8011DB8F18E
:105AB0000001A8F10108F2DC02980028EFD1791E5C
:105AC0000E980870307800F0200040F0450007F88C
:105AD000020D12A8C01B00F107081498007800B14D
